:10000000A3C00000C9C00000C7C00000C5C00000F8
:10001000C3C00000C1C00000BFC00000BDC00000E0
:10002000BBC00000CFC1000015C70000B5C0000074
:10003000B3C00000B1C00000AFC00000ADC0000000
:10004000ABC00000A9C00000A7C00000A5C0000010
:10005000A3C00000A1C000009FC000009DC0000020
:100060009BC0000099C0000097C0000095C0000030
:1000700093C0000091C000008FC000008DC0000040
:100080008BC0000089C0000087C0000085C0000050
:1000900083C0000081C000002804F9C805050109DB
:1000A00006A101050719E029E7150025017501954D
:1000B00008810281011900296515002565750895DB
:1000C000068100050819012905150025017501950E
:1000D00005910295039101C0040309042C0341001A
:1000E00056005200200055005300420020004B00F3
:1000F0004500590042004F004100520044002000DA
:10010000440045004D004F000C03410054004D00D9
:1001100045004C0009022200010100A03209040040
:10012000000103000100092111010001223B000729
:100130000581030800021201000200000040EB03E9
:10014000172000100102000111241FBECFEFD0E2E2
:10015000DEBFCDBF80E830E020E00FB6F89480939A
:100160006100209361000FBE81E011E0A0E0B1E0EA
:10017000E6E1F0E100E00BBF02C007900D92A43071
:10018000B107D9F721E0A4E0B1E001C01D92A63289
:10019000B207E1F756D13DC733CF8FB7F89497EF49
:1001A00094BF0FB6F894A8959091600098619093D1
:1001B0006000109260000FBE87FF01C07894089520
:1001C00010921A0110921901109218011092160142
:1001D00008951092190110921A01E1EFF0E01082D7
:1001E0001082108210821082108210821082E8EE3B
:1001F000F0E080818F778083089591E090931A01D9
:1002000080910601811117C080911701893FB1F4D7
:10021000909306010895E7EAF1E63197F1F700C0FF
:1002200000000196209117012817190609F09CF784
:1002300010920601089590E080E0F4CF8C3F50F0DA
:1002400090E090930A0180930901109208011092A6
:10025000070108954091090150910A012091070179
:10026000309108014C3F510564F0282B3093080170
:10027000209307014150510950930A01409309010D
:1002800008952093F1001092F1008091170180935E
:10029000F1001092F1001092F1001092F100109212
:1002A000F1001092F1008091E8008F778093E800D0
:1002B00008952091040130910501809100019091F1
:1002C0000101281739074CF42FEB87E299E0215000
:1002D00080409040E1F700C00000809104019091BF
:1002E0000501019690930501809304012091180166
:1002F000222319F02130B9F008958091020188235A
:10030000C1F11092020181E08093180188E990E028
:10031000909313018093120185E090E09093150172
:100320008093140108958091140190911501009714
:10033000F1F03091190131111CC030911A013111C5
:1003400018C0E0911201F0911301AF014F5F5F4FB0
:100350005093130140931201E491E0931701019728
:100360009093150180931401209319010895109220
:100370001801089580912201882391F0809119013C
:10038000811101C096CF81E08093E9008091E8005F
:1003900085FF06C080911A01811101C02ECF19CFAF
:1003A000089580910E01813059F480916B00806E28
:1003B00080936B00D89A8091680081608093680078
:1003C000789432C01F920F920FB60F9211240BB681
:1003D0000F922F933F934F935F936F937F938F93DE
:1003E0009F93AF93BF93EF93FF93E8E6F0E0808194
:1003F0008E7F8083D89AEBE6F0E080818F718083D6
:1004000003D5FF91EF91BF91AF919F918F917F9114
:100410006F915F914F913F912F910F900BBE0F9075
:100420000FBE0F901F90189513BE83B7856083BFD2
:100430008895089502D5C4CE0CD59CDFFDCFFADF98
:10044000FBDFABDE80E830E020E00FB6F89480936D
:100450006100209361000FBEF2DF90E080E008951C
:100460007894E8EDF0E080818F76808380818069E8
:10047000808380818F7B8083789408958EE089BD0E
:1004800009B400FEFDCFF8948091D8008F7D809351
:10049000D8007BD08091E0008E7F8093E00078943C
:1004A0008091E20081608093E2008091E2008860A8
:1004B0008093E20008958091D90080FF14C080915C
:1004C0000C01811110C081E080930C0110920E018B
:1004D00077DE80911001909111018260909311015B
:1004E00080931001CBDF8091D90080FD1BC08091EB
:1004F0000C018130B9F410920C011092220180910C
:10050000100190911101846090931101809310016A
:100510008091E00081608093E0008091D80080624B
:100520008093D800809110019091110190FF10C02C
:1005300080911001909111019E7F90931101809301
:10054000100181E08093EA001092EA0010922201EB
:100550001092E9008091E80083FD08C20895EBEE57
:10056000F0E09081916090838093EC00EDEEF0E0FC
:1005700080818270682B608380818260808380911B
:10058000EE00881F8827881F08958091D8008F7BF0
:100590008093D8008091D90081FF0BC01092E900B0
:1005A0008091EB0080FD05C01092E90060E382E0DD
:1005B000D6CF80E0089581E08093E90060E081EC8F
:1005C000CECF80E00895892B91F481E08093E900FB
:1005D0008091EB0080618093EB0082E08093EA00E1
:1005E0001092EA008091EB0088608093EB00089500
:1005F000833029F4613081F020F0623099F080E09E
:10060000089584E08093230188ED90E09093250184
:100610008093240181E008958CE08093230188E099
:1006200091E0F4CF8CE2809323018CED90E0EECF4B
:10063000CF93DF9300D000D0CDB7DEB78091F1002B
:1006400089838091F1008A838BE3809323018DE974
:1006500090E090932501809324018091F1008B8399
:100660008091F1008C838091E800877F8093E8007F
:10067000809123012B813C818217130608F58F732B
:1006800091E009F090E080912301882321F080918E
:10069000E80082FF18C08091E80082FF39C0809195
:1006A000E8008B7F8093E8008091E8008F7780934B
:1006B000E8000F900F900F900F90DF91CF91089569
:1006C00020932301DFCF8091E80080FFFCCF81E4FD
:1006D00020912301211106C08091E8008E7F809334
:1006E000E800D1CF8150C1F3E0912401F0912501C0
:1006F0009F012F5F3F4F3093250120932401E49108
:10070000E093F10020912301215020932301E0CFB9
:10071000913049F48091E80080FFFCCF8091E8009F
:100720008E7F8093E8008091E80082FFFCCFB7CFF6
:100730008091E800877F8093E8008091E8008E7FB9
:100740008093E8008091E80082FFFCCF8091E80070
:100750008B7F8093E8008091E8008F778093E8009A
:100760008091E8008E7F8093E8000895CF93DF9317
:1007700000D0CDB7DEB78091F10089838091F10080
:100780008A838091E800877F8093E80060930D0161
:100790008091E8008E7F8093E8008091E80080FFE0
:1007A000FCCF0F900F90DF91CF910895CF93DF93FF
:1007B00000D000D0CDB7DEB78091F1008983809161
:1007C000F1008A838091F1008B838091F1008C830A
:1007D0008091E800877F8093E8008B819C81892B42
:1007E00049F080910D018093F1008091E8008E7FA7
:1007F0008093E8008091E80082FFFCCF8091E800C0
:100800008B7F8093E8008091E8008F778093E800E9
:100810000F900F900F900F90DF91CF910895CF938D
:10082000DF9300D000D0CDB7DEB78091F10089838F
:100830008091F1008A8389E08093230186E291E030
:1008400090932501809324018091F1008B83809106
:10085000F1008C838091E800877F8093E80080918D
:1008600023012B813C818217130608F58F7391E0D9
:1008700009F090E080912301882321F08091E80025
:1008800082FF18C08091E80082FF39C08091E800A3
:100890008B7F8093E8008091E8008F778093E80059
:1008A0000F900F900F900F90DF91CF9108952093AC
:1008B0002301DFCF8091E80080FFFCCF81E420910D
:1008C0002301211106C08091E8008E7F8093E8000B
:1008D000D1CF8150C1F3E0912401F09125019F0116
:1008E0002F5F3F4F3093250120932401E491E09343
:1008F000F10020912301215020932301E0CF91307A
:1009000049F48091E80080FFFCCF8091E8008E7F61
:100910008093E8008091E80082FFFCCFB7CF282FBA
:10092000962F8091F1006091F100213869F49630A2
:1009300021F4613221F0623229F080E008956FDF06
:1009400081E0089575DEFCCF213251F4993021F019
:100950009A3099F70BDFF4CF623079F7E9DEF0CF08
:10096000213A59F7923049F721DFEACF0F931F93CD
:10097000CF93DF9300D0CDB7DEB78091E8008B7FB7
:100980008093E8001091F1000091F1000C30F8F430
:10099000E02FF0E0E353FB4F33C37D06FA05E70495
:1009A0004406E704BB05D904E7049405DE05B60652
:1009B000DD06103861F46091F1008091F100813022
:1009C000C9F0823009F447C013DE81111CC0602FCA
:1009D000812FA5DF81118BC08091EB008062809315
:1009E000EB008091E800877F8093E80081E08093AE
:1009F0001B017DC082E18093230186E391E0909307
:100A00002501809324018091F1008091F100809173
:100A1000F10089838091F1008A838091E800877FCB
:100A20008093E8008091230129813A81821713067F
:100A3000C0F48F7391E009F090E08091E8008F7E20
:100A40008093E800809123018823C9F18091E80018
:100A500084FF12C034C082E28093230184E191E0DC
:100A6000CECF20932301E8CF8091E80084FD08C019
:100A70008091D90080FF04C08091E80080FFF4CF0E
:100A800081E415C08150B9F0E0912401F091250175
:100A90009F012F5F3F4F3093250120932401E49164
:100AA000E093F10020912301215020932301209114
:100AB00023012111E7CF8091E80084FF1FC091300E
:100AC00021F48091E80084FF25C08091E80084FD36
:100AD00004C08091D90080FDF8CF8091E8008F7E1E
:100AE0008093E8008091E8008B7F8093E8000F906E
:100AF0000F90DF91CF911F910F9108958091D900B0
:100B000080FFDDCF8091E8008E7F9ACF8091D90061
:100B100080FF04C08091E80080FFF8CF8091E8005A
:100B20008E7F8093E800D1CF103809F050CF8091AC
:100B3000E800877F8093E800809122018093F10094
:100B40008091E8008E7F8093E8008091E8008F77A5
:100B50008093E8008091E80082FD04C08091D90074
:100B600080FDF8CF8091E8008B7F8093E800809132
:100B7000E8008F77BACF11112ACF9091F1008091C0
:100B8000E30080789F77892B8093E3008091E800D1
:100B9000877F8093E8008091E8008E7F8093E80053
:100BA0008091E80080FD04C08091D90080FDF8CFDD
:100BB0008091E30080688093E30099CF111107CF03
:100BC0009091F100923008F002CF8091E800877F89
:100BD0008093E800909322018091E8008E7F8093BB
:100BE000E800809122010F900F90DF91CF911F912B
:100BF0000F91E1CC1123A9F0123009F0E8CE8091D9
:100C0000F1009091F1008111E2CE8091F1008F7797
:100C10008093E9009091EB0090FD18C01092E900DC
:100C2000D6CE8091F100813009F0D1CE80910F01B4
:100C30008D7F80930F0110920E018091E800877FD5
:100C40008093E8008091E8008E7F4FCFE82FF0E09E
:100C50008823A1F09091EB0090619093EB0021E04C
:100C600030E001C0220F8A95EAF72093EA00109243
:100C7000EA008091EB0088608093EB001092E9001D
:100C8000E55EFE4F1082D9CF112351F1123009F0E9
:100C90009ECE8091F1009091F100811198CEE0916B
:100CA000F100EF7751F48091EB0080628093EB00CC
:100CB0008091E800877F8093E800E093E9008091CD
:100CC000EB0080FFABCF8091EB0080628093EB0064
:100CD0001092E900F0E0E55EFE4F81E08083ADCF49
:100CE0009091F100913009F072CE80910F018260F5
:100CF00080930F0190930E01A0CF8091F10080911D
:100D0000F100E091F100113879F0123821F110383A
:100D100009F05DCE8091E800877F8093E8008091A4
:100D20000F018093F10007C08091E800877F8093D6
:100D3000E8001092F1001092F1008091E8008E7F9F
:100D40008093E8008091E80082FD0CCF8091D9006B
:100D500080FDF8CF07CF8091E800877F8093E8007F
:100D6000EF77F0E0E55EFE4F8081DBCF113809F0D0
:100D70002ECE8091F1008091F1009091F100998345
:100D80009091F1009A83811122CE8091E800877FB3
:100D90008093E80089819A8114DC8093F10080912E
:100DA000E8008E7F8093E8008091E80082FDDACE33
:100DB0008091D90080FDF8CFD5CE113009F007CE53
:100DC0006091F1008091F1009091F10099839091F0
:100DD000F1009A838111FBCD8091E800877F809399
:100DE000E80089819A81EFDB1092E9008091E800A8
:100DF0008E7F8093E8008091E80080FD78CE80911E
:100E0000D90080FDF8CF73CE09B400FC05C08EE098
:100E100089BD09B400FEFDCF8091D8008F7D8093FD
:100E2000D80080910E01813039F48091E000826019
:100E30008093E00010920E010895E7EDF0E08081CC
:100E40008160808380818F7B8083808180688083C4
:100E500007CB31CB1F920F920FB60F9211240BB616
:100E60000F922F933F934F935F936F937F938F9343
:100E70009F93AF93BF93EF93FF938091E10082FF25
:100E800007C08091E20082FF03C08BEF8093E100F6
:100E90008091E10080FF25C08091E20080FF21C0A9
:100EA00080910E01813009F08DC08091220188234C
:100EB00009F488C08091E2008E7F8093E2008FEE7B
:100EC0008093E1008091E20080618093E20089B527
:100ED0008D7F89BD19BC8091D80080628093D80035
:100EE00060DA8091E10084FF27C08091E20084FFF6
:100EF00023C009B400FC05C08EE089BD09B400FE22
:100F0000FDCF8091D8008F7D8093D8008FEE8093A5
:100F1000E1008091E2008F7E8093E20080911001D9
:100F20009091110180649093110180931001809140
:100F3000E20081608093E2008091E10085FF1AC0A9
:100F40008091E20085FF16C08091E2008F7E809341
:100F5000E2008FED8093E1008091E2008F7D80932D
:100F6000E20080911001909111018068909311012D
:100F7000809310018091E10083FF11C08091E20015
:100F800083FF0DC087EF8093E100FFDA80911001AD
:100F90009091110191609093110180931001FF9144
:100FA000EF91BF91AF919F918F917F916F915F91E1
:100FB0004F913F912F910F900BBE0F900FBE0F904E
:100FC0001F9018958FEE8093E10080911001909111
:100FD0001101806290931101809310018EEF809334
:100FE000E1008091E20080618093E2008091D8006E
:100FF00080628093D80089B58D7F89BD19BC70CF80
:10100000EE0FFF1F0024001C0BBE0790F691E02D91
:061010000994F894FFCFE3
:0410160004000100D1
:00000001FF
